:020000040800F2
:1000000000500020E13F0008F5020008F702000858
:10001000F9020008FB020008FD02000800000000D1
:10002000000000000000000000000000FF020008C7
:100030000103000800000000030300080503000896
:1000400029400008294000082940000829400008EC
:1000500029400008294000082940000829400008DC
:1000600029400008294000082940000829400008CC
:1000700029400008294000082940000829400008BC
:1000800029400008294000082940000829400008AC
:100090000D030008294000082940000829400008F5
:1000A000294000082940000829400008294000088C
:1000B000294000082940000829400008294000087C
:1000C000294000082940000829400008294000086C
:1000D000294000082940000829400008294000085C
:1000E00029400008294000082940000800000000BD
:1000F0000000000000000000000000000000000000
:0C01000000000000000000005FF808F1A3
:10010C0010B5054C237833B9044B13B10448AFF345
:10011C0000800123237010BD80010020000000002E
:10012C008440000808B5034B1BB103490348AFF3E7
:10013C00008008BD000000008401002084400008FD
:10014C0082B00A4B9A6942F020029A619A6902F0D5
:10015C0020020092009A9A6942F004029A619B690B
:10016C0003F004030193019B02B07047001002409E
:10017C0072B6FEE700B589B0002303930493059390
:10018C0006930793019302931348144A026041F6B5
:10019C001F424260836042F20F72C260036143618E
:1001AC00836102F0BBFF88B900230393049303A976
:1001BC00094803F047F858B900230193029301A9A9
:1001CC00054803F069F828B909B000BDFFF7D0FF66
:1001DC00FFF7CEFFFFF7CCFFA4010020002C01405D
:1001EC0010B594B00AAC28220021204603F017FF6A
:1001FC0000230593069307930893099301930293A5
:10020C000393049301220A924FF480330B930E92C2
:10021C000222119212934FF480131393204602F092
:10022C00F9FAC8B90F230593022306930023079309
:10023C004FF4806208920993012105A802F01CFD7D
:10024C0060B9102301934FF48003049301A802F0CA
:10025C00C9FD28B914B010BDFFF78AFFFFF788FF5E
:10026C00FFF786FF08B502F087FAFFF7B9FFFFF733
:10027C0067FF00F085F8FFF77DFF4FF47A7002F00E
:10028C009FFA0921134800F063F9134802F0D2FEDB
:10029C001BE0124B01221A60104B1B6873B9104BF8
:1002AC001B681A2BF5DC0F4A12680121D05C00F098
:1002BC004FF90B4A136801331360EDE7074B00222B
:1002CC001A604FF4FA7002F07BFA054B00221A60A8
:1002DC00E2E700BF9C400008A4010020A001002020
:1002EC009C01002000000020FEE7FEE7FEE7FEE791
:1002FC00FEE770477047704708B502F04FFA08BD2B
:10030C0008B5024801F042F808BD00BFD01000202B
:10031C0082B00E4B9A6942F001029A619A6902F01E
:10032C0001020092009ADA6942F08052DA61DB69CC
:10033C0003F080530193019B054A536823F0E0635B
:10034C0043F08063536002B0704700BF001002405E
:10035C00000001400268094B9A4200D0704782B0FD
:10036C0003F564439A6942F400629A619B6903F451
:10037C0000630193019B02B0704700BF002C014049
:10038C0008B500220F49104802F0BDFF70B90F49A3
:10039C000D4802F0CFFF60B90D490B4803F0D3FDB7
:1003AC0050B9094802F0CDFF48B908BDFFF7E0FE8F
:1003BC00EDE7FFF7DDFEEFE7FFF7DAFEF1E7FFF71A
:1003CC00D7FEF2E738000020EC0100203C010020B1
:1003DC005400002012230B8000487047240000209A
:1003EC0004230B8000487047200000200023934218
:1003FC001DD200B510E00CF1370C01F813C0000150
:10040C004FEA430C0CF1010C4FF0000E01F80CE01C
:10041C000133DBB2934209D24FEA107CB0F1204F8A
:10042C00E9D20CF1300C01F813C0E8E700BD7047BD
:10043C0038B50B4BD3F8E807D3F8EC47D3F8F037C3
:10044C00C01800D138BD074D08222946FFF7CEFF52
:10045C00042205F110012046FFF7C8FFF2E700BFA8
:10046C0000F0FF1F0600002008B51A230B80FFF7D1
:10047C00DFFF014808BD00BF0400002008B50A4694
:10048C0028B90549054803F0B4FB034808BD0249E7
:10049C00024803F0AEFBF8E7B0040020C4400008AB
:1004AC0010B50A46034C2146034803F0A2FB204634
:1004BC0010BD00BFB0040020DC40000808B50A469F
:1004CC0028B90549054803F094FB034808BD0249C7
:1004DC00024803F08EFBF8E7B0040020F04000085F
:1004EC0008B50A4628B90549054803F082FB0348BC
:1004FC0008BD0249024803F07CFBF8E7B004002079
:10050C00FC400008002070470020704710B50146E1
:10051C00044C204603F026FD204603F042FD00204B
:10052C0010BD00BFEC01002010B5064C002206499E
:10053C00204603F00FFD0549204603F013FD002073
:10054C0010BD00BFEC010020B0060020B00A002056
:10055C00094BD3F8B832D3F814320BB101207047E1
:10056C0010B5054C0A460146204603F0F3FC204624
:10057C0003F0FEFC10BD00BFEC010020022805D8E2
:10058C00DFE800F0050402000120704702207047EC
:10059C0002680D4B9A4200D0704700B583B003F54A
:1005AC00DA33DA6942F40002DA61DB6903F400033E
:1005BC000193019B00221146142002F0E3FC14204D
:1005CC0002F0F0FC03B000BD005C004008B500F583
:1005DC002671D0F8D40202F0CCFE08BD08B501EBB0
:1005EC00810300EBC303D3F86421D0F8D40202F0EA
:1005FC00EDFE08BD08B501EB810300EBC3035A6A9D
:10060C00D0F8D40202F028FF08BD08B5D0F8D40207
:10061C0002F0C9FF08BD10B504468379022B09D13D
:10062C000121D4F8D40202F0A7FFD4F8D40202F0CE
:10063C007BFF10BDFFF79CFDF2E7000010B50446F0
:10064C00D0F8D40202F09BFFA37A23B1024A1369BB
:10065C0043F00603136110BD00ED00E008B5D0F8BF
:10066C00D40202F095FF08BD10B504461D48C0F831
:10067C00D442C4F8C0021C4B03600823037102234C
:10068C00837100238372C372037300F023F930BBB0
:10069C00182300221146D4F8C00201F092F8582316
:1006AC0000228021D4F8C00201F08BF8C023002274
:1006BC008121D4F8C00201F084F84FF48873002231
:1006CC000121D4F8C00201F07CF84FF480730022B1
:1006DC008221D4F8C00201F074F8002010BDFFF79D
:1006EC0047FDD5E7D0100020005C004008B5D0F8DD
:1006FC00C00200F063F9FFF741FF08BD08B594464E
:10070C001A466346D0F8C00200F018FFFFF736FF18
:10071C0008BD08B5D0F8C00200F052FFFFF72EFF5D
:10072C0008BD08B5D0F8C00200F0CCFFFFF726FFDB
:10073C0008BD08B5D0F8C00201F004F8FFF71EFFA1
:10074C0008BDD0F8C03211F0800F08D101F07F0144
:10075C0001EB810103EBC10393F85201704701F0E7
:10076C007F0101EB810103EBC103987C704708B555
:10077C00D0F8C00200F0F7FDFFF700FF08BD08B588
:10078C00D0F8C00200F078FFFFF7F8FE08BD08B5FE
:10079C00D0F8C00200F04AFFFFF7F0FE08BD08B524
:1007AC00D0F8C00200F05FFF08BD000000487047A1
:1007BC00B00E00207047704738B512F4804F44D00B
:1007CC000468B4F850309BB291F800C003EBCC0332
:1007DC00023304EB4304B4F80044C4F309048B69FA
:1007EC00A34228D31B1B8B618B697BB9056835F839
:1007FC002C309BB223F4804323F0700383F400531A
:10080C0043F4004343F0800325F82C3012F0400FE2
:10081C000ED002680D7832F825309BB223F4E043F9
:10082C0023F0700343F4004343F0C00322F8253057
:10083C0024B9204638BD00238B61D5E723460A89AD
:10084C004969006801F05AFFF3E70468B4F85030C6
:10085C009BB291F800C003EBCC03063304EB4304CA
:10086C00B4F80044C4F309048B69A3422FD31B1BB7
:10087C008B618B697BB9056835F82C309BB223F4FE
:10088C00804323F0700383F4005343F4004343F09C
:10089C00800325F82C3012F0400F0FD1026891F82C
:1008AC0000C032F82C309BB223F4E04323F07003E9
:1008BC0043F4004343F0C00322F82C30002CB8D092
:1008CC0023464A894969006801F018FFB1E7002303
:1008DC008B61CEE738B500286ED0044690F8913283
:1008EC00A3B1032384F8913200236371206800F0D4
:1008FC0094FF234653F8040B0ECB00F07EFF50B14F
:10090C00022384F891320125284638BD80F89032B4
:10091C00FFF73EFEE5E70021206800F088FF034664
:10092C00A8B902462079904216D902EB820104EB59
:10093C00C101012048740A740020C874086248621E
:10094C00013202EB8201C9006050D2B2EAE7022305
:10095C0084F891320125D7E7984217D903EB83022B
:10096C0004EBC202002182F8511182F8503182F856
:10097C005311C2F86011C2F8641103EB830204EB4B
:10098C00C202C2F868110133DBB2E5E7234653F823
:10099C00040B0ECB00F04DFF054620B1022384F86A
:1009AC0091320125B0E700236373012384F891325F
:1009BC00206801F09DFAA7E70125A5E738B590F866
:1009CC009032012B11D00446012580F8905200681A
:1009DC0000F01AFF29462046FFF7EDFE206801F0D3
:1009EC0085FA002084F8900238BD0220FCE770B52F
:1009FC0005460C46164612F0400F00F00E810268B8
:100A0C00B2F850309BB2097803EBC103023302EB0E
:100A1C004302B2F80024C2F30902A36993424ED9EF
:100A2C009B1AA361A369002B66D16378002B49D173
:100A3C002B68B3F8502092B2134403EB0113B3F8B4
:100A4C000424C2F30902A3F80424B3F804246FEAC3
:100A5C0042426FEA524292B2A3F804242B686278A5
:100A6C00002A3CD1B3F8502092B21344227803EB05
:100A7C000213B3F80C24C2F30902A3F80C24B3F844
:100A8C000C246FEA42426FEA524292B2A3F80C2451
:100A9C0021782846FFF7AEFD16F4804F41D02A6826
:100AAC00217832F821309BB223F4E04323F0700319
:100ABC0043F4404343F0800322F8213031E000231B
:100ACC00A361AFE7012BC9D12B68B3F8502092B2C8
:100ADC00134403EB01130022A3F80424BEE7012AFC
:100AEC00D6D1B3F8502092B21344227803EB021300
:100AFC000022A3F80C24CBE716F4804F0DD0286805
:100B0C0030F821309BB223F4E04323F0700343F41C
:100B1C00404343F0800320F8213094F82430012B1B
:100B2C0012D02A68217832F821309BB223F4E043AA
:100B3C0023F0400383F0300343F4004343F080037D
:100B4C0022F82130002070BD636913446361E369AE
:100B5C001344E361216A2369994224D3C91A21629F
:100B6C006278002A44D12A68B2F8501089B20A443B
:100B7C00217802EB0112B2F80414C1F30901A2F8B6
:100B8C0004143E2B1BD9580913F01F0F00D1013848
:100B9C00B2F8041489B2800280B2014341F40041DE
:100BAC00A2F8041426E021B9002384F8243013465B
:100BBC00D6E7002384F8243023620B46D0E74BB9E8
:100BCC00B2F804146FEA41416FEA514189B2A2F8BC
:100BDC0004140FE0590813F0010F00D00131B2F8E2
:100BEC00040480B2890289B20143A2F8041401E022
:100BFC00012A06D09BB222896169286801F080F92C
:100C0C008FE72A68B2F8501089B20A44217802EBB7
:100C1C00011299B2A2F80414ECE70268B2F8503051
:100C2C009BB2097803EBC103063302EB4302B2F823
:100C3C000024C2F30902A36993424FD39B1AA36108
:100C4C00A369002B67D16378002B4AD12B68B3F8CA
:100C5C00502092B2134403EB0113B3F80424C2F3F3
:100C6C000902A3F80424B3F804246FEA42426FEAA1
:100C7C00524292B2A3F804242B686278002A3DD128
:100C8C00B3F8502092B21344227803EB0213B3F85A
:100C9C000C24C2F30902A3F80C24B3F80C246FEA59
:100CAC0042426FEA524292B2A3F80C2421782846B1
:100CBC00FFF7A0FC16F4804F7FF433AF2A6821783D
:100CCC0032F821309BB223F4E04323F0700343F459
:100CDC00404343F0800322F8213022E70023A36134
:100CEC00AEE7012BC8D12B68B3F8502092B2134455
:100CFC0003EB01130022A3F80424BDE7012AD5D18C
:100D0C00B3F8502092B21344227803EB0213002262
:100D1C00A3F80C24CAE716F4804F0DD1286830F8DC
:100D2C0021309BB223F4E04323F0700343F440439F
:100D3C0043F0800320F8213094F82430012B7FF409
:100D4C00F0AE636913446361E3691344E361216AA0
:100D5C002369994224D3C91A21622A68617800292F
:100D6C0043D1B2F8501089B20A44217802EB011237
:100D7C00B2F80C14C1F30901A2F80C143E2B1BD9C8
:100D8C00580913F01F0F00D10138B2F80C1489B2B6
:100D9C00800280B2014341F40041A2F80C1426E019
:100DAC0021B9002384F824301346D6E700232362AC
:100DBC0084F824300B46D0E74BB9B2F80C146FEA28
:100DCC0041416FEA514189B2A2F80C140FE0590865
:100DDC0013F0010F00D00131B2F80C0480B289027B
:100DEC0089B20143A2F80C1401E0012906D09BB290
:100DFC0062896169286801F083F892E6B2F85010B4
:100E0C0089B20A44217802EB011299B2A2F80C14AF
:100E1C00EDE72DE9F04105462868B0F8443013F4AD
:100E2C00004F00F09D82B0F84440A3B214F00F04C0
:100E3C0040F0DE8013F0100F6BD003889AB213F4DD
:100E4C00006F40F0998012F4004FE5D0038823F036
:100E5C0070031B051B0D43F0800303802868B0F85A
:100E6C0050309BB295F8502103EBC203063300EBD4
:100E7C004303B3F80034C3F30903C5F86C318BB1E9
:100E8C00D5F8641171B1B5F8562101F037FCD5F8DD
:100E9C006431D5F86C211344C5F86431002128461F
:100EAC00FFF79CFB2A68138899B213F4006FB3D137
:100EBC0001F44051B1F5405FAED0B2F850309BB266
:100ECC001A44B2F80C34C3F30903A2F80C34D5F865
:100EDC0060313E2B73D9590913F01F0F00D1013922
:100EEC00B2F80C349BB2890289B20B4343F4004331
:100EFC00A2F80C342A6813889BB223F4804323F0A5
:100F0C00700383F4405343F4004343F08003138095
:100F1C0082E703889BB223F4E14323F070036FEA6A
:100F2C0043436FEA53439BB203802A68B2F85030B4
:100F3C009BB2297C03EBC103023302EB4302B2F8F0
:100F4C000034C3F30903EB626A6A1A446A62002133
:100F5C002846FFF74FFB6B7B002B3FF45DAFAB6A72
:100F6C00002B7FF459AF6B7B2A6843F08003A2F807
:100F7C004C3000236B734FE7B0F850309BB295F8B0
:100F8C00502103EBC203063300EB4303B3F80034E8
:100F9C00C3F30903C5F86C31B5F8562105F5267174
:100FAC0001F0ACFB2A68138823F070031B051B0DA2
:100FBC0043F0800313802846FFF708FB2CE74BB95E
:100FCC00B2F80C346FEA43436FEA53439BB2A2F876
:100FDC000C348FE7590813F0010F00D00131B2F82F
:100FEC000C3498B28B029BB20343A2F80C3481E709
:100FFC0030F824309EB213F4004F50D116F0800F0D
:10100C003FF40AAF04EB8401C900103129442A686B
:10101C0032F824309BB223F4E14323F070036FEADF
:10102C0043436FEA53439BB222F8243004EB84030E
:10103C0005EBC303DB7C012B00F0F28016F4807F00
:10104C0040F089812868B0F850309BB204EB8402E0
:10105C0005EBC202167C03EBC603023300EB430321
:10106C00B3F80034C3F30903621C02EB820255F897
:10107C0032209A4240F25281671C07EB8707D21A42
:10108C0045F83720621C02EB820255F83220002A08
:10109C0040F04B8131462846FFF7ACFABCE630F8FD
:1010AC00243023F070031B051B0D43F0800320F844
:1010BC00243004EB8401C90001F5A87105EB01088B
:1010CC0004EB840305EBC30393F85C31002B42D192
:1010DC002868B0F850309BB204EB840205EBC202D6
:1010EC0092F8502103EBC203063300EB4303B3F831
:1010FC000074C7F3090717BB04EB840305EBC303A8
:10110C00D3F86C213A44C3F86C21D3F864213A44E7
:10111C00C3F86421D3F868313BB104EB840305EBCD
:10112C00C303D3F860319F4275D204EB840305EB03
:10113C00C30393F850112846FFF750FA5EE704EB0F
:10114C00840105EBC1013B46B1F85621D1F864117D
:10115C0001F0D4FAD0E704EB840305EBC30393F856
:10116C005331022B35D0296804EB840205EBC20203
:10117C0092F8500131F820309BB223F4E04323F075
:10118C00700343F4004343F0C00321F82030286877
:10119C0092F8502130F8223013F4804F20D0B0F860
:1011AC0050309BB203EBC203023300EB4303B3F8A2
:1011BC000074C7F30907002F9ED004EB840105EBE4
:1011CC00C1013B46B1F85821D1F8641101F096FAEF
:1011DC0092E7324641462846FFF7EEFA07468BE780
:1011EC00B0F850309BB203EBC203063300EB430361
:1011FC00B3F80074C7F30907002F3FF47DAF04EB7D
:10120C00840105EBC1013B46B1F85A21D1F86411B8
:10121C0001F074FA70E74146286800F084FEEDE6B0
:10122C00631C03EB8303DB000022EA5004EB840312
:10123C0005EBC3031B7F1BB316F0400F3BD004EB35
:10124C00840305EBC3035B7C1BBB2B68B3F85020FA
:10125C0092B2134404EB840205EBC202127C03EB42
:10126C000213B3F80424C2F30902A3F80424B3F85C
:10127C0004246FEA42426FEA524292B2A3F8042469
:10128C0004EB840405EBC404217C2846FFF7B2F977
:10129C00C2E5012BF4D12B68B3F8502092B2134461
:1012AC0004EB840205EBC202127C03EB0213002256
:1012BC00A3F80424E4E72B6804EB840205EBC202D8
:1012CC00527CD2B9B3F8502092B2134404EB84028E
:1012DC0005EBC202127C03EB0213B3F80C24C2F32D
:1012EC000902A3F80C24B3F80C246FEA42426FEA0B
:1012FC00524292B2A3F80C24C2E7012AC0D1B3F82F
:10130C00502092B2134404EB840205EBC202127C0F
:10131C0003EB02130022A3F80C24B1E7621C02EBCE
:10132C008202D2000027AF50ACE604EB840205EB3E
:10133C00C202566A1E445662013404EB840205EB69
:10134C00C202526804EB840405EBC40413446360CA
:10135C0000F0E9FD60E532462846FFF748FB5BE507
:10136C000020BDE8F08190F89032012B0CD010B524
:10137C000446012380F890324173006800F0B0FD00
:10138C00002084F8900210BD0220704710B584B084
:10139C000446006800F0AEFD10F4004F20D110F4AC
:1013AC00806F21D110F4804F2FD110F4005F37D112
:1013BC0010F4805F3ED110F4006F40F0878010F481
:1013CC00007F40F0AE8010F4807F27D02268B2F806
:1013DC0044309BB223F480739BB2A2F844301DE0DE
:1013EC002046FFF716FD19E02268B2F844309BB294
:1013FC0023F480639BB2A2F844302046FFF70BF92C
:10140C0000212046FFF7AFFF08E02268B2F8443015
:10141C009BB223F480439BB2A2F8443004B010BDBD
:10142C002268B2F844309BB223F400539BB2A2F86A
:10143C004430F3E72268B2F840309BB223F0040347
:10144C009BB2A2F840302268B2F840309BB223F035
:10145C0008039BB2A2F840302046FFF7FFF8226841
:10146C00B2F844309BB223F480539BB2A2F84430C0
:10147C00D4E7226832F8231004AA02EB430222F8C4
:10148C00101C0133DBB2072BF3D92268B2F84030C1
:10149C009BB243F00103A2F840302268B2F840300E
:1014AC009BB223F001039BB2A2F840302368B3F83F
:1014BC00442012F4806FF9D0B3F8442092B222F495
:1014CC00806292B2A3F8442000230BE00023DAE7F9
:1014DC00226804A901EB430131F8101C22F82310F7
:1014EC000133DBB2072BF3D92268B2F840309BB240
:1014FC0043F00803A2F840302268B2F844309BB2A3
:10150C0023F400639BB2A2F844302268B2F8403056
:10151C009BB243F00403A2F840302046FFF78EF84C
:10152C007CE72268B2F844309BB223F400739BB280
:10153C00A2F844302046FFF768F86FE710B5044670
:10154C00084611F0800F26D101F0070C0CEB8C0E25
:10155C004FEACE0E0EF5A87E04EB0E010CEB8C0CB4
:10156C0004EBCC0C4FF0000E8CF851E100F00700AE
:10157C0008700A61CB70022B1DD094F89032012BAD
:10158C001CD0012384F89032206800F063F900200D
:10159C0084F8900210BD01F0070C0CEB8C01C90013
:1015AC00103121440CEB8C0C04EBCC0C4FF0010EE5
:1015BC008CF811E0DAE700230B71DEE70220E9E793
:1015CC0010B504460A4611F0800F1FD101F0070038
:1015DC0000EB8003DB0003F5A873E11800EB80003F
:1015EC0004EBC000002380F8513102F007020A70AE
:1015FC0094F89032012B17D0012384F89032206894
:10160C0000F00DFB002084F8900210BD01F00700E3
:10161C0000EB8003DB001033E11800EB800004EBDF
:10162C00C00001234374E0E70220EEE710B501F09F
:10163C00070C0CEB8C01C90001F5A8710CEB8C0E9E
:10164C0000EBCE0ECEF86421CEF868310024CEF833
:10165C006C418EF851418EF850C10144006800F085
:10166C0062FC204610BD01F0070101EB810100EB8B
:10167C00C100D0F86C01704738B501F0070C0CEBC9
:10168C008C01C90010310CEB8C0E00EBCE0ECEF899
:10169C0024200CF1010202EB820440F834300125C5
:1016AC008EF83450CEF8303000EBC4020024546075
:1016BC008EF811508EF810C00144006800F033FC15
:1016CC00204638BD38B501F007050279AA4235D35A
:1016DC0004460B4611F0800F1ED101EB8101C900AD
:1016EC0001F5A871014403EB830300EBC303002253
:1016FC0083F8512101238B700D7094F89032012BDB
:10170C001ED0012384F89032206800F073FB7DB169
:10171C00002084F8900238BD05EB8501C90010311A
:10172C00014405EB850300EBC30301225A74E1E786
:10173C0004F52671206800F0E1FBE9E70120EAE7F7
:10174C000220E8E70B46017903F00F02914234D3F3
:10175C0010B5044613F0800F21D103F0070202EB01
:10176C008201C90001F5A871014402EB820200EB71
:10177C00C202002082F8510100228A7003F0070394
:10178C000B7094F89032012B19D0012384F890320D
:10179C00206800F054FB002084F8900210BD03F088
:1017AC00070202EB8201C9001031014402EB8202F4
:1017BC0000EBC20201205074DEE7012070470220CA
:1017CC00ECE711F0800F0BD001F0070101EB810168
:1017DC00C9001031084452B90273C380002070470D
:1017EC0001EB8101C90001F5A8710844F3E701225E
:1017FC00027303811B0C4381F0E784B004A800E959
:10180C000E00002004B0704703460020A3F84400EB
:10181C004FF43F42A3F840207047B0F8403023F417
:10182C007C535B045B0CA0F8403000207047002018
:10183C00704784B0844604A800E90E000123ACF87C
:10184C0040300020ACF84000ACF84400ACF850003C
:10185C0004B0704710B5034691F800C030F82C2046
:10186C0092B222F4EC4222F0700292B2C8780328B1
:10187C0061D8DFE800F0555C0258002048F2800E79
:10188C0042EA0E0223F82C2091F800C033F82C20E9
:10189C0092B222F4E04222F0700242EA0C0242EAD6
:1018AC000E0223F82C200A7B002A40F0DC804A78B8
:1018BC00002A51D0B3F8502092B21A440C7802EBA3
:1018CC000412B1F806C04FEA5C0C4FEA4C0CA2F8BB
:1018DC0000C40C7833F8242012F0400F0CD033F8ED
:1018EC00242092B222F4E04222F0700242F4004230
:1018FC0042F0C00223F82420CA78012A1DD00978AE
:10190C0033F8212092B222F4E04222F0400282F01D
:10191C00200242F4004242F0800223F8212017E119
:10192C0042F40072AAE742F4C0620020A6E742F437
:10193C0080620020A2E70120A0E7097833F821207B
:10194C0092B222F4E04222F0400242F4004242F011
:10195C00800223F82120FBE0B3F8502092B21A4405
:10196C000C7802EB0412B1F806C04FEA5C0C4FEA9B
:10197C004C0CA2F808C4B3F8502092B21A440C785C
:10198C0002EB0412B2F80CC4CCF3090CA2F80CC490
:10199C000C693E2C39D94FEA541E14F01F0F01D19B
:1019AC000EF1FF3EB2F80CC41FFA8CFC4FEA8E2EDF
:1019BC001FFA8EFE4CEA0E0C4CF4004CA2F80CC430
:1019CC000C7833F8242012F4804F0CD033F82420F8
:1019DC0092B222F4E04222F0700242F4404242F011
:1019EC00800223F82420097869BB33F8212092B2B5
:1019FC0022F4804222F0700282F4405242F40042FF
:101A0C0042F0800223F82120A2E04CB9B2F80C4439
:101A1C006FEA44446FEA5444A4B2A2F80C44CFE7F2
:101A2C004FEA540C14F0010F01D00CF1010CB2F878
:101A3C000C44A4B24FEA8C2C1FFA8CFC44EA0C0424
:101A4C00A2F80C44BCE733F8212092B222F4804275
:101A5C0022F0700282F4005242F4004242F0800202
:101A6C0023F8212074E0CA78022A72D00C7833F85B
:101A7C00242092B222F4E24222F0700242F400429C
:101A8C0042F0800223F82420B3F8502092B21A447A
:101A9C0091F800C002EB0C12B1F808C04FEA5C0CD4
:101AAC004FEA4C0CA2F800C4B3F8502092B21A447E
:101ABC0091F800C002EB0C12B1F80AC04FEA5C0CB2
:101ACC004FEA4C0CA2F808C44A78002A50D10C7882
:101ADC0033F8242012F4804F0CD033F8242092B227
:101AEC0022F4E04222F0700242F4404242F08002C2
:101AFC0023F824200C7833F8242012F0400F0CD05B
:101B0C0033F8242092B222F4E04222F0700242F424
:101B1C00004242F0C00223F8242091F800C033F8B0
:101B2C002C2092B222F4804222F0700282F44052B5
:101B3C0048F28004224323F82C20097833F8212022
:101B4C0092B222F4E04222F04002224323F82120F8
:101B5C0010BD0C7833F8242092B222F4E04222F02B
:101B6C00700242F4014242F0800223F824208BE7F9
:101B7C000C7833F8242012F4804F0CD033F8242046
:101B8C0092B222F4E04222F0700242F4404242F05F
:101B9C00800223F824200C7833F8242012F0400F14
:101BAC000CD033F8242092B222F4E04222F07002DE
:101BBC0042F4004242F0C00223F82420CA78012AE1
:101BCC001ED00C7833F8242092B222F4E04222F09A
:101BDC00400282F0200242F4004242F0800223F8DC
:101BEC002420097833F8212092B222F4804222F08A
:101BFC00700242F4004242F0800223F82120A7E751
:101C0C000C7833F8242092B222F4E04222F0400205
:101C1C0042F4004242F0800223F82420E1E70B7BDF
:101C2C00002B46D14B7813B30A7830F8223013F0DE
:101C3C00400F0CD030F822309BB223F4E04323F059
:101C4C00700343F4004343F0C00320F822300A78B9
:101C5C0030F822309BB223F4E04323F0400343F4EA
:101C6C00004343F0800320F82230002070470A78AC
:101C7C0030F8223013F4804F0CD030F822309BB265
:101C8C0023F4E04323F0700343F4404343F0800318
:101C9C0020F822300A7830F822309BB223F48043AB
:101CAC0023F0700343F4004343F0800320F8223008
:101CBC00DBE74B78002B4ED10A7830F8223013F446
:101CCC00804F0CD030F822309BB223F4E04323F049
:101CDC00700343F4404343F0800320F822300A7829
:101CEC0030F8223013F0400F0CD030F822309BB279
:101CFC0023F4E04323F0700343F4004343F0C003A8
:101D0C0020F822300A7830F822309BB223F4E043DA
:101D1C0023F0700343F4004343F0C00320F8223057
:101D2C000A7830F822309BB223F4804323F07003FE
:101D3C0048F2800C43EA0C0320F822300A7830F881
:101D4C0022309BB223F4E04323F0400343EA0C031C
:101D5C0020F8223089E70A7830F8223013F4804FCB
:101D6C000CD030F822309BB223F4E04323F0700304
:101D7C0043F4404343F0800320F822300A7830F8D3
:101D8C00223013F0400F0CD030F822309BB223F4E9
:101D9C00E04323F0700343F4004343F0C00320F806
:101DAC0022300A7830F822309BB223F4E04323F03F
:101DBC00700343F4404343F0800320F822300A7848
:101DCC0030F822309BB223F4E04323F0400348F276
:101DDC00800C43EA0C0320F822300A7830F82230C9
:101DEC009BB223F4804323F0700343EA0C0320F8E6
:101DFC0022303AE74B788BB10A7830F822309BB21C
:101E0C0023F4E04323F0400383F0100343F4004336
:101E1C0043F0800320F82230002070470A7830F815
:101E2C0022309BB223F4804323F0700383F480535D
:101E3C0043F4004343F0800320F82230ECE70B7BA3
:101E4C00002B4BD14B7833B30A7830F8223013F097
:101E5C00400F0CD030F822309BB223F4E04323F037
:101E6C00700343F4004343F0C00320F82230CB78D6
:101E7C00012B33D00A7830F822309BB223F4E043A4
:101E8C0023F0400383F0200343F4004343F080032A
:101E9C0020F8223022E00A7830F8223013F4804FF8
:101EAC000CD030F822309BB223F4E04323F07003C3
:101EBC0043F4404343F0800320F822300A7830F892
:101ECC0022309BB223F4804323F0700383F44053FD
:101EDC0043F4004343F0800320F822300020704785
:101EEC0011B98023A0F84C300020704700207047B7
:101EFC0000207047B0F8440080B270470020704753
:101F0C0001335B0800EB420000F5806008E00A78C2
:101F1C0091F801C042EA0C2220F8042B0231013B5B
:101F2C00002BF4D1704770B505460C464A78012A4F
:101F3C003BD00B7B002B40F0A6828B690A69934245
:101F4C0040F284829B1A8B61B5F850309BB22B44C3
:101F5C00217803EB0113B3F80C14C1F30901A3F8B6
:101F6C000C143E2A40F27682510912F01F0F00D158
:101F7C000139B3F80C2492B2890289B20A4342F4B3
:101F8C000042A3F80C24227835F822309BB223F4BB
:101F9C00804323F0700383F4405343F4004343F035
:101FAC00800325F82230002070BD8E6909698E42AD
:101FBC0000D90E46237B73B3E378022B4DD0236AF2
:101FCC009B1B2362217835F8213013F0400F00F071
:101FDC00F581002A40F0E281B5F850309BB22B44D9
:101FEC0003EB0113B3F80C24C2F30902A3F80C247D
:101FFC003E2E40F2BA81710916F01F0F00D1013943
:10200C00B3F80C2492B2890289B20A4342F400421A
:10201C00A3F80C24CBE1B6B23346E28861692846BA
:10202C00FFF76EFFB5F850309BB22B44227803EBD0
:10203C000213A3F80464227835F822309BB223F4FF
:10204C00E04323F0400383F0300343F4004343F0B8
:10205C00800325F822300020A6E7236A994280F0FD
:10206C006681227835F822309BB223F4E04323F0CA
:10207C00700343F4014343F0800325F82230236AB4
:10208C009B1B2362227835F8223013F0400F00F0AE
:10209C00A7806378B3BBB5F850309BB22B4403EBED
:1020AC000213B3F80C24C2F30902A3F80C243E2E3D
:1020BC000FD9710916F01F0F00D10139B3F80C2498
:1020CC0092B2890289B20A4342F40042A3F80C246A
:1020DC001AE04EB9B3F80C246FEA42426FEA52424E
:1020EC0092B2A3F80C240FE0720816F0010F00D086
:1020FC000132B3F80C1489B2920292B20A43A3F8DB
:10210C000C2401E0012B30D0B3B2628961692846FE
:10211C00FFF7F6FE636933446361236A22699342D5
:10212C002DD99B1B23626378002B45D1B5F8503019
:10213C009BB22B44227803EB0213B3F80424C2F3B2
:10214C000902A3F804243E2E1DD9710916F01F0FA5
:10215C0000D10139B3F8042492B2890289B20A433E
:10216C0042F40042A3F8042428E0B5F850309BB2A6
:10217C002B4403EB0213B2B2A3F80C24C4E70022E5
:10218C0022621E46CFE74EB9B3F804246FEA4242EE
:10219C006FEA524292B2A3F804240FE0720816F0D0
:1021AC00010F00D00132B3F8041489B2920292B23A
:1021BC000A43A3F8042401E0012B06D0B3B2228910
:1021CC0061692846FFF79CFE35E7B5F850309BB2A5
:1021DC002B44227803EB0213B2B2A3F80424EDE7EC
:1021EC006378B3BBB5F850309BB22B4403EB0213AE
:1021FC00B3F80424C2F30902A3F804243E2E0FD929
:10220C00710916F01F0F00D10139B3F8042492B2F2
:10221C00890289B20A4342F40042A3F804241AE06A
:10222C004EB9B3F804246FEA42426FEA524292B2BA
:10223C00A3F804240FE0720816F0010F00D001324D
:10224C00B3F8041489B2920292B20A43A3F804249C
:10225C0001E0012B30D0B3B2228961692846FFF727
:10226C004FFE636933446361236A226993422DD91B
:10227C009B1B23626378002B45D1B5F850309BB281
:10228C002B44227803EB0213B3F80C24C2F309029B
:10229C00A3F80C243E2E1DD9710916F01F0F00D186
:1022AC000139B3F80C2492B2890289B20A4342F480
:1022BC000042A3F80C2428E0B5F850309BB22B4414
:1022CC0003EB0213B2B2A3F80424C4E70022226287
:1022DC001E46CFE74EB9B3F80C246FEA42426FEAC0
:1022EC00524292B2A3F80C240FE0720816F0010FC0
:1022FC0000D00132B3F80C1489B2920292B20A43A4
:10230C00A3F80C2401E0012B06D0B3B262896169F9
:10231C002846FFF7F5FD8EE6B5F850309BB22B44FE
:10232C00227803EB0213B2B2A3F80C24EDE7217868
:10233C0035F8212092B222F4E24222F0700242F4EB
:10234C00004242F0800225F82120B5F8502092B2CC
:10235C002A44217802EB01129BB2A2F804342289A0
:10236C0061692846FFF7CCFD65E64EB9B3F80C243D
:10237C006FEA42426FEA524292B2A3F80C2416E082
:10238C00720816F0010F00D00132B3F80C1489B2A8
:10239C00920292B20A43A3F80C2408E0B5F850302C
:1023AC009BB22B4403EB0113B2B2A3F80C24B3B2CF
:1023BC00628961692846FFF7A3FD3CE6B2BBB5F81C
:1023CC0050309BB22B4403EB0113B3F80424C2F33B
:1023DC000902A3F804243E2E0FD9710916F01F0F21
:1023EC0000D10139B3F8042492B2890289B20A43AC
:1023FC0042F40042A3F8042421E04EB9B3F80424BB
:10240C006FEA42426FEA524292B2A3F8042416E0F9
:10241C00720816F0010F00D00132B3F8041489B21F
:10242C00920292B20A43A3F8042408E0B5F85030A3
:10243C009BB22B4403EB0113B2B2A3F80424B3B246
:10244C00228961692846FFF75BFDF4E500228A6169
:10245C001A4679E54AB9B3F80C246FEA42426FEA9E
:10246C00524292B2A3F80C248DE5510812F0010FE0
:10247C0000D00131B3F80C2492B2890289B20A431C
:10248C00A3F80C247FE5CB78022B4DD0012B40F028
:10249C00338189692369994240F2EA80C91AA161A2
:1024AC00F2B9B5F8502092B22A44217802EB01120D
:1024BC00B2F80414C1F30901A2F804143E2B40F243
:1024CC00DB80580913F01F0F00D10138B2F8041447
:1024DC0089B2800280B2014341F40041A2F8041495
:1024EC006278002A40F0FA80B5F8502092B22A4463
:1024FC00217802EB0112B2F80C14C1F30901A2F815
:10250C000C143E2B40F2D180590913F01F0F00D14F
:10251C000139B2F80C349BB2890289B20B4343F4F3
:10252C000043A2F80C342EE5F2B9B0F850309BB24F
:10253C0003440A7803EB0213B3F80424C2F3090230
:10254C00A3F804240A693E2A31D9510912F01F0F4D
:10255C0000D10139B3F8042492B2890289B20A433A
:10256C0042F40042A3F804246378002B51D1B5F84F
:10257C0050309BB22B44227803EB0213B3F80C249B
:10258C00C2F30902A3F80C2422693E2A28D9510966
:10259C0012F01F0F00D10139B3F80C2492B289024A
:1025AC0089B20A4342F40042A3F80C2433E04AB93E
:1025BC00B3F804246FEA42426FEA524292B2A3F893
:1025CC000424D1E7510812F0010F00D00131B3F807
:1025DC00042490B28A0292B20243A3F80424C3E703
:1025EC004AB9B3F80C246FEA42426FEA524292B2F3
:1025FC00A3F80C240FE0510812F0010F00D00131A8
:10260C00B3F80C2490B28A0292B20243A3F80C24C1
:10261C0001E0012B1CD0E369002B3FF4B4AC227811
:10262C0035F8223099B213F4804F1CD011F0400FC2
:10263C003FF4A9AC35F822309BB223F4E04323F0ED
:10264C00700343F4004343F0C00325F822309AE4AE
:10265C00B5F850309BB22B44227803EB0213228A3C
:10266C00A3F80C24D7E711F0400F7FF48CACE1E712
:10267C000023A3610B4613E74BB9B2F804146FEABD
:10268C0041416FEA514189B2A2F8041428E7590874
:10269C0013F0010F00D00131B2F8040480B28902AA
:1026AC0089B20143A2F804141AE74BB9B2F80C34FE
:1026BC006FEA43436FEA53439BB2A2F80C3462E4D3
:1026CC00590813F0010F00D00131B2F80C3498B254
:1026DC008B029BB20343A2F80C3454E4012A7FF41E
:1026EC0052ACB5F8502092B22A44217802EB011278
:1026FC009BB2A2F80C3446E4012055E410B45C08FB
:10270C0000EB420000F5806007E030F8042B0A7003
:10271C00C2F307224A700231013C002CF5D113F0B0
:10272C00010F01D003880B7010BC704710B5044624
:10273C000E4B18680E4B1A784FF47A73B3FBF2F306
:10274C00B0FBF3F000F03CFC68B90F2C01D9012070
:10275C000AE0002221464FF0FF3000F013FC054B3D
:10276C001C60002000E0012010BD00BF6C000020A8
:10277C00640000206800002008B5074A136843F085
:10278C0010031360032000F0EBFB0F20FFF7CEFFCC
:10279C00FDF7BEFD002008BD00200240034A116871
:1027AC00034B1B780B441360704700BFA813002029
:1027BC0064000020014B1868704700BFA81300206C
:1027CC0038B50446FFF7F6FF0546B4F1FF3F02D0DB
:1027DC00044B1B781C44FFF7EDFF401BA042FAD3BF
:1027EC0038BD00BF6400002082B0084B1B68084A4B
:1027FC00A2FB03235B0A00FB03F3019300BF019BC5
:10280C005A1E0192002BF9D102B070476C000020C7
:10281C00D34D6210002800F0F18170B582B00446EF
:10282C00036813F0010F2CD0994B5B6803F00C0379
:10283C00042B1DD0964B5B6803F00C03082B12D0B5
:10284C006368B3F5803F41D0002B55D103F1804331
:10285C0003F504331A6822F480321A601A6822F4E1
:10286C0080221A6037E08A4B5B6813F4803FE7D014
:10287C00874B1B6813F4003F03D06368002B00F0F8
:10288C00BF81236813F0020F75D0814B5B6813F086
:10289C000C0F5FD07E4B5B6803F00C03082B54D0FD
:1028AC002369002B00F08A807A4B01221A60FFF713
:1028BC0081FF0546764B1B6813F0020F75D1FFF7AD
:1028CC0079FF401B0228F5D903209EE1704A13685A
:1028DC0043F480331360636843B3FFF76BFF054623
:1028EC006B4B1B6813F4003FCBD1FFF763FF401B0E
:1028FC006428F5D9032088E1B3F5A02F09D0644BE7
:10290C001A6822F480321A601A6822F480221A6043
:10291C00E1E703F18043A3F53C331A6842F48022CB
:10292C001A601A6842F480321A60D4E7FFF742FF4B
:10293C000546574B1B6813F4003FA2D0FFF73AFF34
:10294C00401B6428F5D903205FE1514B5B6813F4FD
:10295C00803FA5D14E4B1B6813F0020F03D02369A7
:10296C00012B40F04F814A4A136823F0F803616948
:10297C0043EAC1031360236813F0080F33D0A36933
:10298C00002B5CD0434B0122C3F88024FFF712FFCD
:10299C0005463F4B5B6A13F0020F21D1FFF70AFF8C
:1029AC00401B0228F5D903202FE1394A136823F084
:1029BC00F803616943EAC1031360DCE7354B00227D
:1029CC001A60FFF7F7FE0546314B1B6813F0020F38
:1029DC00D1D0FFF7EFFE401B0228F5D9032014E1FC
:1029EC000120FFF701FF236813F0040F00F096801D
:1029FC00274BDB6913F0805F34D1254BDA6942F049
:102A0C008052DA61DB6903F080530193019B01254D
:102A1C00214B1B6813F4807F26D0E368012B3DD03B
:102A2C00002B53D103F1804303F504331A6A22F0CF
:102A3C0001021A621A6A22F004021A6233E0154B80
:102A4C000022C3F88024FFF7B5FE0546104B5B6AE5
:102A5C0013F0020FC7D0FFF7ADFE401B0228F5D9CB
:102A6C000320D2E00025D3E70B4A136843F48073AC
:102A7C001360FFF79FFE0646074B1B6813F4807F1D
:102A8C00CBD1FFF797FE801B6428F5D90320BCE05F
:102A9C000010024000004242007000405F4A136A7E
:102AAC0043F001031362E36833B3FFF783FE06467A
:102ABC005A4B1B6A13F0020F2FD1FFF77BFE801BC2
:102ACC0041F288339842F3D903209EE0052B09D0BC
:102ADC00524B1A6A22F001021A621A6A22F004029C
:102AEC001A62E0E74D4B1A6A42F004021A621A6A43
:102AFC0042F001021A62D6E7FFF75CFE0646474B2E
:102B0C001B6A13F0020F08D0FFF754FE801B41F232
:102B1C0088339842F3D9032077E0E5B9E369002BB9
:102B2C0072D03E4A526802F00C02082A56D0022B90
:102B3C0017D03B4B00221A66FFF73CFE0446374B7E
:102B4C001B6813F0007F47D0FFF734FE001B0228F0
:102B5C00F5D9032059E0314AD36923F08053D3616E
:102B6C00DCE72F4B00221A66FFF724FE05462B4BA1
:102B7C001B6813F0007F06D0FFF71CFE401B0228D9
:102B8C00F5D9032041E0236AB3F5803F1AD02349DD
:102B9C004B6823F47413226A606A024313434B603C
:102BAC001F4B01221A66FFF705FE04461B4B1B68E0
:102BBC0013F0007F0ED1FFF7FDFD001B0228F5D9A5
:102BCC00032022E0154A536823F40033A1680B4319
:102BDC005360DCE7002018E0002016E0012B16D033
:102BEC000E4B5B6803F48031226A914211D103F4DD
:102BFC007013626A93420ED1002006E001207047E8
:102C0C00012002E0012000E0002002B070BD012094
:102C1C00FBE70120F9E70120F7E700BF00100240B5
:102C2C00000042420F4B5B6803F00C02082A01D0F3
:102C3C000D487047C3F383420C49885C13F4803F02
:102C4C000BD0084B5B68C3F34043094AD35C064A7C
:102C5C0002FB00F0B0FBF3F07047064B03FB00F0F7
:102C6C00704700BF0010024000127A0010410008AB
:102C7C000C41000800093D00002800F0A08070B550
:102C8C000D460446524B1B6803F007038B420BD2D4
:102C9C004F4A136823F007030B431360136803F0C8
:102CAC0007038B4240F08D80236813F0020F17D07E
:102CBC0013F0040F04D0474A536843F4E0635360A5
:102CCC00236813F0080F04D0424A536843F460534E
:102CDC005360404A536823F0F003A1680B435360E0
:102CEC00236813F0010F31D06368012B20D0022B25
:102CFC0025D0384A126812F0020F64D035494A6860
:102D0C0022F0030213434B60FFF754FD0646314B90
:102D1C005B6803F00C036268B3EB820F16D0FFF70D
:102D2C0049FD801B41F288339842F0D9032045E0DD
:102D3C00284A126812F4003FE0D101203EE0254AF7
:102D4C00126812F0007FD9D1012037E0204B1B68AC
:102D5C0003F00703AB420AD91D4A136823F007039B
:102D6C002B431360136803F00703AB422DD1236888
:102D7C0013F0040F06D0174A536823F4E063E1689C
:102D8C000B435360236813F0080F07D0114A5368A4
:102D9C0023F46053216943EAC1035360FFF742FFF8
:102DAC000C4B5B68C3F303130B4AD35CD8400B4B3F
:102DBC0018600B4B1868FFF7B9FC002070BD0120A0
:102DCC0070470120FAE70120F8E70120F6E700BF81
:102DDC000020024000100240204100086C0000203E
:102DEC006800002070B582B00446036813F0010F30
:102DFC0036D03F4BDB6913F0805F4AD13C4BDA692C
:102E0C0042F08052DA61DB6903F080530193019B3D
:102E1C000125384B1B6813F4807F3CD0344B1B6A64
:102E2C0013F4407313D0626802F440729A420ED0CD
:102E3C002F4A136A23F440702F490126C1F84064CD
:102E4C000026C1F84064106213F0010F37D1284AF4
:102E5C00136A23F4407361680B431362002D3FD156
:102E6C00236813F0020F06D0214A536823F4404321
:102E7C00A1680B435360236813F0100F35D01C4A24
:102E8C00536823F48003E1680B435360002002B0C5
:102E9C0070BD0025BDE7174A136843F480731360B7
:102EAC00FFF788FC0646134B1B6813F4807FB5D1E3
:102EBC00FFF780FC801B6428F5D90320E7E7FFF7B8
:102ECC0079FC06460A4B1B6A13F0020FBFD1FFF7C1
:102EDC0071FC801B41F288339842F3D90320D6E76A
:102EEC00D36923F08053D361BAE70020CFE700BF4A
:102EFC00001002400070004000004242002808DB35
:102F0C000901C9B200F1604000F5614080F800137E
:102F1C00704700F00F000901C9B2014B19547047FA
:102F2C0014ED00E000B500F00700C0F1070CBCF197
:102F3C00040F28BF4FF0040C031D062B0ED9C31E23
:102F4C004FF0FF3E0EFA0CF021EA000199400EFA08
:102F5C0003FE22EA0E0241EA020000BD0023EFE765
:102F6C00074AD36823F4E0631B041B0C000200F433
:102F7C00E060034343F0BF6343F40033D360704716
:102F8C0000ED00E010B50446054BD868C0F30220F4
:102F9C00FFF7C8FF01462046FFF7B0FF10BD00BF8A
:102FAC0000ED00E0002807DB00F01F0240090123C0
:102FBC009340024A42F82030704700BF00E100E025
:102FCC000138B0F1807F0BD24FF0E0235861054AF5
:102FDC00F02182F823100020986107221A617047B3
:102FEC000120704700ED00E010B4036A046A24F07D
:102FFC0001040462846924F0F00C4CEA021223F000
:10300C000A030B438261036210BC704710B4036A5D
:10301C00046A24F010040462846924F4704C4CEAB1
:10302C00023223F0A00343EA01138261036210BC55
:10303C007047000090F83D30012B27D1022380F817
:10304C003D300268D36843F00103D3600368114A32
:10305C00934210D0B3F1804F0DD0A2F5943293422D
:10306C0009D002F58062934205D01A6842F0010241
:10307C001A60002070479A6802F00702062A07D0EF
:10308C001A6842F001021A60002070470120704754
:10309C0000207047002C014003681F4A90420AD060
:1030AC00B0F1804F07D0A2F59432904203D002F5D4
:1030BC008062904203D123F070034A681343164A8E
:1030CC0090420AD0B0F1804F07D0A2F594329042D2
:1030DC0003D002F58062904203D123F44073CA6896
:1030EC00134323F080034A69134303608B68C36264
:1030FC000B688362084B98420AD001234361036931
:10310C0013F0010F03D0036923F00103036170472F
:10311C000B690363F1E700BF002C014040B310B50D
:10312C00044690F83D30F3B1022384F83D3021463B
:10313C0051F8040BFFF7B0FF012384F8463084F8F4
:10314C003E3084F83F3084F8403084F8413084F8C5
:10315C00423084F8433084F8443084F8453084F8A5
:10316C003D30002010BD80F83C30FDF7F3F8DBE774
:10317C000120704710B4846824F47F4C42EA032287
:10318C000A4342EA0C02826010BC704710B5046816
:10319C00A26822F070024B68134323F007030A68FD
:1031AC001A43A2604B68502B30D00BD9602B34D013
:1031BC00702B43D10B698A68C9680068FFF7DAFF86
:1031CC00002010BD402B0CD02ED8202B2ED004D894
:1031DC0073B3102B2ED10020F3E7302B2CD1002011
:1031EC00EFE70B68052B2BD003681C6A1A6A22F0D8
:1031FC0001021A620268936923F0F003096943EA39
:10320C000113936103681C620020DAE70A6989687C
:10321C000068FFF7E9FE0020D3E70A6989680068B7
:10322C00FFF7F4FE0020CCE70120CAE70020C8E736
:10323C000020C6E70120C4E70120C2E70120C0E757
:10324C000120BEE790F83C30012B22D010B504468B
:10325C00012380F83C30022380F83D30FFF796FFC5
:10326C0080B92268D36823F04003D3602268D36806
:10327C0023F48043D360012384F83D30002384F889
:10328C003C3010BD012084F83D00002384F83C3014
:10329C00F7E702207047000090F83C20012A2CD060
:1032AC0010B40346012280F83C20022280F83D2015
:1032BC0002685068946820F0700C086840EA0C00B2
:1032CC0050601A680E4882420AD0B2F1804F07D083
:1032DC00A0F59430824203D000F58060824204D184
:1032EC0024F08004496821439160012283F83D2039
:1032FC00002083F83C0010BC70470220704700BFD0
:10330C00002C0140704798B108B50346D0F8B402C0
:10331C0010B10020C3F8B40209B1C3F8B0120121F6
:10332C0083F89C121A701846FDF79EF9002008BD10
:10333C000220704719B1C0F8B41200207047022067
:10334C00704708B5FDF7D2F9002008BD08B5D0F8D4
:10335C00B4322BB11B68984700B908BD0220FCE7BA
:10336C000220FAE708B5D0F8B4325B689847002021
:10337C0008BD38B5044600F52A75284600F035F925
:10338C000123C4F89432B4F8AE32C4F8983294F8ED
:10339C00A81201F01F03012B08D0022B0BD07BB914
:1033AC002946204600F0D0FA002038BD2946204698
:1033BC0000F0FEFAF8E72946204600F029FBF3E777
:1033CC0001F080012046FDF7ACF9EDE738B5044675
:1033DC000D4691BB1346D0F89422032A03D0052A3C
:1033EC0024D0084633E0D0F86011D0F86421914223
:1033FC000DD9891AC0F860118A4206D98AB21946C9
:10340C00204600F037FC284621E092B2F7E7D0F8CE
:10341C00B4321B691BB190F89C22032A04D02046BD
:10342C0000F030FC284612E09847F8E70021C0F87D
:10343C009412FDF776F9284609E0D0F8B4329B696E
:10344C0033B190F89C22032A04D19847002038BD50
:10345C000220FCE70220FAE738B504460D460029A5
:10346C0053D11346D0F89422022A0CD0042A00D04F
:10347C001AB980212046FDF754F994F8A032012B9B
:10348C003ED0284638BD026A416A8A421BD8C269BE
:10349C00B2FBF1F301FB13232BB9914203D8D0F803
:1034AC0098329A421CD3D4F8B432DB681BB194F82E
:1034BC009C22032A21D080212046FDF732F9204698
:1034CC0000F0EBFBD9E7521A026292B2194600F0F7
:1034DC00BAFB00231A4619462046FDF758F9CCE7EB
:1034EC000022114600F0AFFB0021C4F898120B46E5
:1034FC000A462046FDF74BF9BFE720469847DAE726
:10350C00002384F8A0322846BCE7D0F8B4325B69BB
:10351C0033B190F89C22032A04D198470020B1E7DC
:10352C000220AFE70220ADE770B50446402300222D
:10353C001146FDF7E3F80125C4F858514026C4F8AC
:10354C0064613346002280212046FDF7D7F8A5613F
:10355C00666284F89C520023C4F894326360C4F809
:10356C00A432D4F8B8322BB1D4F8B4325B68002151
:10357C0020469847002070BD01740020704790F8D9
:10358C009C3280F89D32042380F89C3200207047D6
:10359C0090F89C32042B01D00020704790F89D329B
:1035AC0080F89C32F8E708B590F89C32032B01D0D8
:1035BC00002008BDD0F8B432DB69002BF8D0984756
:1035CC00F6E70346002002E00130C0B201331A785E
:1035DC00002AF9D1704708B54B88012B00D008BDE3
:1035EC00C0F8A43200F04EFBF9E70B7803704B786F
:1035FC0043708B78CA7803EB022343800B794A79AA
:10360C0003EB022383808B79CA7903EB0223C380FB
:10361C00704710B504468021FDF783F80021204641
:10362C00FDF77FF810BD30B583B005460C4600237E
:10363C00ADF806304A88130A013B062B00F2A48031
:10364C00DFE803F004182CA2A2869300D0F8B03265
:10365C001B680DF10601007C9847BDF806201AB1D5
:10366C00E388002B40F09480E388002B00F09A80D4
:10367C0003B030BD037C43B9D0F8B4329B6A0DF172
:10368C000600984702234370E7E7D0F8B432DB6AB0
:10369C000DF10600984702234370DEE7D2B2052AEB
:1036AC0052D8DFE802F003101D2A3744D0F8B032AC
:1036BC005B6823B10DF10601007C9847CDE72146EC
:1036CC00FFF7A7FFD4E7D0F8B0329B6823B10DF118
:1036DC000601007C9847C0E72146FFF79AFFC7E731
:1036EC00D0F8B032DB6823B10DF10601007C9847AD
:1036FC00B3E72146FFF78DFFBAE7D0F8B0321B696C
:10370C0023B10DF10601007C9847A6E72146FFF78F
:10371C0080FFADE7D0F8B0325B6923B10DF1060143
:10372C00007C984799E72146FFF773FFA0E7D0F894
:10373C00B0329B6923B10DF10601007C98478CE7F0
:10374C002146FFF766FF93E72146FFF762FF8FE7FD
:10375C00037C33B9D0F8B4325B6B0DF1060098479B
:10376C007BE72146FFF755FF82E7037C43B9D0F88E
:10377C00B4321B6B0DF106009847072343706CE7BE
:10378C002146FFF746FF73E72146FFF742FF6FE73D
:10379C009A4228BF1A46ADF806200146284600F08A
:1037AC0045FA61E7284600F06DFA61E738B5044642
:1037BC008B88F3B9CB88E3B94B887F2B19D803F0EE
:1037CC007F0590F89C32032B0CD080F89E52294632
:1037DC00FCF7CDFF204600F055FA35B1022384F8F2
:1037EC009C3209E0FFF715FF06E0012384F89C32B8
:1037FC0002E02046FFF70DFF38BD000038B5044647
:10380C000D468978284B197001290ED890F89C32F6
:10381C00022B0ED0032B21D02946FFF7FAFE224BA8
:10382C0019782046FFF79EFD02E02946FFF7F1FECE
:10383C0038BD81B14160032380F89C32FFF786FDCF
:10384C00022803D0204600F01DFAF1E72946204655
:10385C00FFF7DFFEECE700F015FAE9E789B1436802
:10386C0099421DD0D9B2FFF77DFD0F4B19786160DD
:10387C002046FFF76BFD02280DD0204600F002FA1F
:10388C00D6E7022380F89C324160FFF76BFD20469F
:10389C0000F0F8F9CCE729462046FFF7BAFEC7E757
:1038AC0000F0F0F9C4E700BFAC13002008B5CB88DA
:1038BC00012B0AD190F89C32022B09D9032B11D180
:1038CC000122011D00F0B2F901E0FFF7A2FE08BDD4
:1038DC005BB23BB10146002341F8083F012200F0E6
:1038EC00A5F9F4E7FFF795FEF1E708B590F89C32DF
:1038FC00013B022B12D8CB88022B0CD10123C360C5
:10390C00D0F8A4320BB10323C360022200F10C01E6
:10391C0000F08CF908BDFFF77CFEFBE7FFF779FEA2
:10392C00F8E708B590F89C32013B022B09D84B887C
:10393C00012B00D008BD0023C0F8A43200F0A2F97E
:10394C00F8E7FFF766FEF5E708B50B7803F06003C0
:10395C00202B05D0402B03D043B1FFF75AFE03E0D8
:10396C00D0F8B4329B689847002008BD4B78092BDF
:10397C001BD8DFE803F011171A141A08051A0E0BDE
:10398C00FFF751FEF0E7FFF711FFEDE7FFF736FF0A
:10399C00EAE7FFF78BFFE7E7FFF7A7FFE4E7FFF79F
:1039AC001AFEE1E7FFF7BDFFDEE7FFF732FEDBE7CC
:1039BC0038B505460C460B7803F06003202B06D077
:1039CC00402B04D01BB1FFF724FE002038BD95F826
:1039DC009C32013B022B16D82379012B0ED8D5F83B
:1039EC00B4329B68214628469847E388002BECD1DB
:1039FC000028EAD1284600F045F9E6E7214628469A
:103A0C00FFF707FEE1E721462846FFF702FEDCE759
:103A1C0070B505468B880C7804F06004202C07D018
:103A2C00DAB2402C04D05CB1FFF7F3FD002405E0C2
:103A3C00D5F8B4329B68284698470024204670BDC0
:103A4C00202C09D04E78012E33D0032E0AD0002E14
:103A5C0055D0FFF7DEFDF1E7D0F8B4329B689847FC
:103A6C000446EBE790F89C32022B04D0032B11D0C8
:103A7C00FFF7CFFDE2E70AB1802A03D12846FFF712
:103A8C00C8FDDBE71146FCF74CFE80212846FCF70D
:103A9C0048FED3E74B8823B91AB1802A01D0CB88D2
:103AAC001BB1284600F0EEF8C8E71146FCF739FECA
:103ABC00F7E790F89C32022B04D0032B11D0FFF7C0
:103ACC00A8FDBBE70AB1802A03D12846FFF7A1FD68
:103ADC00B4E71146FCF725FE80212846FCF721FEB1
:103AEC00ACE74B88002BA9D112F07F0F03D12846ED
:103AFC0000F0C8F8A2E71146FCF71BFEF7E790F8B8
:103B0C009C02022806D0032829D02846FFF781FD05
:103B1C00344693E70AB1802A13D113F0800F15D1E4
:103B2C0002F07F0202EB8202910001F5A871294498
:103B3C00043100230B600222284600F077F834464B
:103B4C007CE72846FFF765FD344677E702F07F02F5
:103B5C0002EB82029100103129440431E9E75BB297
:103B6C00002B1FDB02F00F0000EB800005EB800048
:103B7C00D0F8580120B3002B27DB02F07F0303EBB6
:103B8C0083039C0004F5A8742C4404340AB1802AE5
:103B9C0024D10023236002222146284600F046F857
:103BAC0034464BE702F00F0000EB800005EB800081
:103BBC0080690028DFD12846FFF72BFD34463DE70E
:103BCC002846FFF726FD344638E702F07F0303EB67
:103BDC0083039C0010342C440434D7E71146284648
:103BEC00FCF7AFFD10B101232360D4E70023236061
:103BFC00D1E7D0B170B50D4616460446FFF7E1FC8F
:103C0C00431C5B009BB233802B7003236B7002232D
:103C1C0007E001345A1CD2B2E8540233DBB2002163
:103C2C00A95420780028F4D170BD704708B513460C
:103C3C000222C0F89422C36103620A460021FCF7F9
:103C4C009EFD002008BD08B513460A460021FCF76E
:103C5C0096FD002008BD08B513460322C0F8942237
:103C6C00C0F85C31C0F860310A460021FCF78FFDCA
:103C7C00002008BD08B513460A460021FCF787FD55
:103C8C00002008BD08B50423C0F8943200231A465E
:103C9C001946FCF774FD002008BD08B50523C0F8D3
:103CAC00943200231A461946FCF771FD002008BD1A
:103CBC0010B5D0F8B842D0F8BC325BB194F8000221
:103CCC00FF2807D09B6894F8012221469847FF23D0
:103CDC0084F80032002010BD432303800048704755
:103CEC00B40000204323038000487047F8000020F4
:103CFC004323038000487047700000200A23038090
:103D0C00004870477401002038B50446D0F8B8520A
:103D1C00FCF745FDC5F80C02D4F8B8324BB1D4F819
:103D2C00BC32DB6805F50371D5F804029847002016
:103D3C0038BD0220FCE710B5D0F8B822D0F8C0424C
:103D4C00F2B101EB810300EB8303DB694BB101EBB7
:103D5C00810C04EBCC04246AB3FBF4FC04FB1C3391
:103D6C0023B10023C2F81432002010BD01EB8103F3
:103D7C0000EB83030022DA611346FCF700FDF3E746
:103D8C000220F2E7F0B583B006460C46D0F8B872C4
:103D9C0000238DF80730ADF804300B7813F0600574
:103DAC0027D0202D53D1CA88DAB113F0800F0CD054
:103DBC00D0F8BC329B68394660789847E28839461F
:103DCC003046FFF733FF002544E04B7887F800328C
:103DDC008B7987F80132CA883946FFF73CFF0025FA
:103DEC0038E0D0F8BC329B68002248789847002510
:103DFC0030E04F780A2F10D00B2F1CD01FBB90F83F
:103E0C009C32032B03D0FFF704FC022522E0022294
:103E1C0001A9FFF70BFF3D461CE090F89C32032BE9
:103E2C0003D0FFF7F6FB022514E001220DF1070188
:103E3C00FFF7FCFE0EE090F89C32032B0AD0FFF744
:103E4C00E8FB022506E0FFF7E4FB022502E0FFF7A2
:103E5C00E0FB0225284603B0F0BD38B504468121AD
:103E6C00FCF757FC0025E56201212046FCF751FCCC
:103E7C00C4F86C5182212046FCF74BFC2564D4F825
:103E8C00B8324BB1D4F8BC325B689847D4F8B8025E
:103E9C00FCF790FCC4F8B852002038BD70B504464D
:103EAC00037CABBB4FF4007302228121FCF726FC90
:103EBC000125E5624FF40073022229462046FCF7E7
:103ECC001DFCC4F86C510823032282212046FCF708
:103EDC0015FC012323644FF40770FCF767FC0546BF
:103EEC00C4F8B80268B3D4F8BC321B6898470023F6
:103EFC00C5F81432C5F81832267CCEB94FF40073CD
:103F0C00D5F8042201212046FCF741FC304670BD57
:103F1C00402302228121FCF7F1FB0125E5624023BD
:103F2C00022229462046FCF7E9FBC4F86C51CAE78B
:103F3C004023D5F8042201212046FCF728FC00265A
:103F4C00E4E70126E2E719B1C0F8BC120020704783
:103F5C0002207047D0F8B832C3F80812C3F8102208
:103F6C0000207047D0F8B832C3F804120020704714
:103F7C00D0F8B8229AB108B5D2F814320BB101209E
:103F8C0008BD0123C2F81432D2F8103203639BB27D
:103F9C00D2F808228121FCF7F2FB0020F0E7022086
:103FAC007047D0F8B82292B108B5037C43B94FF4EE
:103FBC000073D2F804220121FCF7E9FB002008BDB4
:103FCC004023D2F804220121FCF7E1FBF6E70220A2
:103FDC0070470000FFF796F90B480C490C4A002378
:103FEC0002E0D458C4500433C4188C42F9D3094AA3
:103FFC00094C002301E013600432A242FBD300F011
:10400C0017F8FCF72FF97047000000208001002002
:10401C003841000880010020B0130020FEE7034661
:10402C000244934200D1704703F8011BF9E70000EA
:10403C0070B500260C4D0D4B5B1B9C10A64209D194
:10404C00002600F019F80A4D0A4B5B1B9C10A64287
:10405C0005D170BD55F8043B98470136EEE755F88D
:10406C00043B98470136F2E7304100083041000824
:10407C003041000834410008F8B500BFF8BC08BC5A
:10408C009E467047F8B500BFF8BC08BC9E4670470A
:10409C00576F726B73210D0A000000005761746139
:1040AC00736869776120596F7368696B6167692000
:1040BC006B6972610D0A000053544D3332205669FE
:1040CC00727475616C20436F6D506F7274000000D8
:1040DC0053544D6963726F656C656374726F6E696E
:1040EC006373000043444320436F6E6669670000AE
:1040FC0043444320496E7465726661636500000039
:10410C000102000002030405060708090A0B0C0D46
:10411C000E0F10100000000000000000010203044C
:04412C000607080971
:044130003101000851
:044134000D01000871
:10413800A84000081A03000000000000000000006A
:104148000000000000000000000000000000000067
:1041580004030904120100020202004083044057CC
:104168000002010203010000E1030008ED0300085A
:10417800AD0400088904000875040008C904000893
:10418800ED040008350500081105000815050008AC
:1041980019050008010000001000000000127A0054
:1041A80009074300020104C03209040000010202A9
:1041B8000100052400100105240100010424020265
:1041C8000524060001070582030800100904010000
:1041D800020A0000000705010240000007058102ED
:1041E8004000000009024300020100C03209040037
:1041F800000102020100052400100105240100014C
:1042080004240202052406000107058203080010A1
:1042180009040100020A000000070501024000002D
:10422800070581024000000009024300020100C0A6
:1042380032090400000102020100052400100105F2
:104248002401000104240202052406000107058256
:104258000308001009040100020A00000007050114
:10426800020002000705810200020000A93E0008C2
:10427800673E0008913D000800000000BD3C0008B2
:10428800433D0008153D0008000000000000000044
:1042980000000000F13C0008E53C0008FD3C000877
:1042A800093D00080A060002000000400100000065
:0400000508003FE1CF
:00000001FF
